:100000000C9461000C9473000C9473000C947300B6
:100010000C9473000C9473000C9473000C94730094
:100020000C9473000C9473000C9473000C94730084
:100030000C9473000C9473000C9473000C94730074
:100040000C9423010C9473000C9473000C947300B3
:100050000C9473000C9473000C9473000C94730054
:100060000C9473000C94730000000000240027001F
:100070002A000000000023002600290000000000E4
:10008000250028002B0004040404040404040202D4
:100090000202020203030303030301020408102007
:1000A0004080010204081020010204081020000012
:1000B0000008000201000003040700000000000027
:1000C000000011241FBECFEFD8E0DEBFCDBF21E07E
:1000D000A0E0B1E001C01D92AF30B207E1F70E948D
:1000E0006D010C9460020C940000833081F028F4C0
:1000F000813099F08230A9F008958730A9F08830D6
:10010000C9F08430B1F4809180008F7D03C080916C
:1001100080008F7780938000089584B58F7784BDA9
:10012000089584B58F7DFBCF8091B0008F77809349
:10013000B00008958091B0008F7DF9CF1F93CF93C9
:10014000DF93EBEBF0E09491E7EAF0E0D491E3E9A0
:10015000F0E0C491CC23B9F0182F992319F0892F1E
:100160000E947500EC2FF0E0EE0FFF1FE458FF4FE8
:10017000A591B4918FB7F894EC91111108C0D09566
:10018000DE23DC938FBFDF91CF911F910895DE2B8B
:10019000F8CFCF93DF93282F30E0F901E255FF4FDE
:1001A0008491F901E656FF4FD491F901EA57FF4FC8
:1001B000C491CC23A1F081110E947500EC2FF0E0D6
:1001C000EE0FFF1FEE58FF4FA591B491EC91ED2378
:1001D00081E090E009F480E0DF91CF91089580E024
:1001E00090E0FACFCF93DF9390E0FC01E656FF4F0B
:1001F00024918A579F4FFC0184918823D1F090E08D
:10020000880F991FFC01E859FF4FA591B491FC019B
:10021000E458FF4FC591D49161110EC09FB7F89477
:100220008C91E22FE0958E238C932881E223E88342
:100230009FBFDF91CF9108958FB7F894EC91E22B97
:10024000EC938FBFF6CF1F920F920FB60F9211242F
:100250002F933F938F939F93AF93BF9380910B0105
:1002600090910C01A0910D01B0910E0130910A0105
:1002700023E0230F2D3758F50196A11DB11D2093C2
:100280000A0180930B0190930C01A0930D01B09390
:100290000E018091060190910701A0910801B09193
:1002A00009010196A11DB11D8093060190930701DC
:1002B000A0930801B0930901BF91AF919F918F91D5
:1002C0003F912F910F900FBE0F901F90189526E829
:1002D000230F0296A11DB11DD2CF789484B5826000
:1002E00084BD84B5816084BD85B5826085BD85B5DA
:1002F000816085BD80916E00816080936E00109258
:1003000081008091810082608093810080918100D2
:100310008160809381008091800081608093800063
:100320008091B10084608093B1008091B0008160C1
:100330008093B00080917A00846080937A008091ED
:100340007A00826080937A0080917A008160809345
:100350007A0080917A00806880937A001092C100C0
:1003600061E08DE00E94F20060E082E00E94F20015
:1003700060E083E00E94F20060E084E00E94F2000E
:1003800060E085E00E94F200BB24B39480E0E82E98
:1003900080E0F82E82E00E94C9006C019093050174
:1003A0008093040183E00E94C900EC019093030153
:1003B0008093020184E00E94C9008C0190930101A6
:1003C0008093000185E00E94C900BC01C114D104E2
:1003D00009F058C0209709F044C021E008C0611519
:1003E0007105D9F721E00115110509F449C030E084
:1003F000C114D10409F05BC091E0209709F490E0AA
:100400006115710549F441E00115110509F040E05D
:10041000CD2819F081E005C041E081E0672B09F0AB
:1004200080E051E0CD2B21F051E0012B09F050E0AC
:100430009923A9F0442329F0942F882311F0952FB4
:100440009B2580E09217130609F081E00E949E0030
:10045000E114F10409F49ECF0E9400009BCF91E0CB
:10046000F0CF0115110509F4BACF6115710509F432
:10047000B4CFC114D10409F4B0CF209709F0B2CFA2
:1004800020E0B5CF0115110581F7209709F0AACF1B
:1004900030E020E091E06115710539F4B4CF41E01E
:1004A00091E081E0CD2B09F0BFCF51E0C8CF672BA1
:1004B000B1F741E00115110509F040E091E0AACF44
:0404C000F894FFCFDE
:00000001FF
