:100000000C9434000C943E000C943E000C943E0082
:100010000C943E000C943E000C943E000C943E0068
:100020000C943E000C943E000C943E000C943E0058
:100030000C943E000C943E000C943E000C943E0048
:100040000C943E000C943E000C943E000C943E0038
:100050000C943E000C943E000C943E000C943E0028
:100060000C943E000C943E0011241FBECFEFD8E04C
:10007000DEBFCDBF0E9440000C945C000C940000D9
:100080008AB18AB9259A30E289B1282F2470982F35
:100090009C7061F021110CC08871883139F015B85D
:1000A00089B1282F2470982F9C70A1F735B9ECCF17
:0C00B00085FDF2CF35B9E8CFF894FFCF02
:00000001FF
